{
  "_format": "hh-sol-artifact-1",
  "contractName": "MyGovernor",
  "sourceName": "contracts/MyGovernor.sol",
  "abi": [
    {
      "inputs": [
        {
          "internalType": "contract IVotes",
          "name": "_token",
          "type": "address"
        }
      ],
      "stateMutability": "nonpayable",
      "type": "constructor"
    },
    {
      "inputs": [],
      "name": "Empty",
      "type": "error"
    },
    {
      "anonymous": false,
      "inputs": [
        {
          "indexed": false,
          "internalType": "uint256",
          "name": "proposalId",
          "type": "uint256"
        }
      ],
      "name": "ProposalCanceled",
      "type": "event"
    },
    {
      "anonymous": false,
      "inputs": [
        {
          "indexed": false,
          "internalType": "uint256",
          "name": "proposalId",
          "type": "uint256"
        },
        {
          "indexed": false,
          "internalType": "address",
          "name": "proposer",
          "type": "address"
        },
        {
          "indexed": false,
          "internalType": "address[]",
          "name": "targets",
          "type": "address[]"
        },
        {
          "indexed": false,
          "internalType": "uint256[]",
          "name": "values",
          "type": "uint256[]"
        },
        {
          "indexed": false,
          "internalType": "string[]",
          "name": "signatures",
          "type": "string[]"
        },
        {
          "indexed": false,
          "internalType": "bytes[]",
          "name": "calldatas",
          "type": "bytes[]"
        },
        {
          "indexed": false,
          "internalType": "uint256",
          "name": "startBlock",
          "type": "uint256"
        },
        {
          "indexed": false,
          "internalType": "uint256",
          "name": "endBlock",
          "type": "uint256"
        },
        {
          "indexed": false,
          "internalType": "string",
          "name": "description",
          "type": "string"
        }
      ],
      "name": "ProposalCreated",
      "type": "event"
    },
    {
      "anonymous": false,
      "inputs": [
        {
          "indexed": false,
          "internalType": "uint256",
          "name": "proposalId",
          "type": "uint256"
        }
      ],
      "name": "ProposalExecuted",
      "type": "event"
    },
    {
      "anonymous": false,
      "inputs": [
        {
          "indexed": false,
          "internalType": "uint256",
          "name": "oldQuorumNumerator",
          "type": "uint256"
        },
        {
          "indexed": false,
          "internalType": "uint256",
          "name": "newQuorumNumerator",
          "type": "uint256"
        }
      ],
      "name": "QuorumNumeratorUpdated",
      "type": "event"
    },
    {
      "anonymous": false,
      "inputs": [
        {
          "indexed": true,
          "internalType": "address",
          "name": "voter",
          "type": "address"
        },
        {
          "indexed": false,
          "internalType": "uint256",
          "name": "proposalId",
          "type": "uint256"
        },
        {
          "indexed": false,
          "internalType": "uint8",
          "name": "support",
          "type": "uint8"
        },
        {
          "indexed": false,
          "internalType": "uint256",
          "name": "weight",
          "type": "uint256"
        },
        {
          "indexed": false,
          "internalType": "string",
          "name": "reason",
          "type": "string"
        }
      ],
      "name": "VoteCast",
      "type": "event"
    },
    {
      "anonymous": false,
      "inputs": [
        {
          "indexed": true,
          "internalType": "address",
          "name": "voter",
          "type": "address"
        },
        {
          "indexed": false,
          "internalType": "uint256",
          "name": "proposalId",
          "type": "uint256"
        },
        {
          "indexed": false,
          "internalType": "uint8",
          "name": "support",
          "type": "uint8"
        },
        {
          "indexed": false,
          "internalType": "uint256",
          "name": "weight",
          "type": "uint256"
        },
        {
          "indexed": false,
          "internalType": "string",
          "name": "reason",
          "type": "string"
        },
        {
          "indexed": false,
          "internalType": "bytes",
          "name": "params",
          "type": "bytes"
        }
      ],
      "name": "VoteCastWithParams",
      "type": "event"
    },
    {
      "inputs": [],
      "name": "BALLOT_TYPEHASH",
      "outputs": [
        {
          "internalType": "bytes32",
          "name": "",
          "type": "bytes32"
        }
      ],
      "stateMutability": "view",
      "type": "function"
    },
    {
      "inputs": [],
      "name": "COUNTING_MODE",
      "outputs": [
        {
          "internalType": "string",
          "name": "",
          "type": "string"
        }
      ],
      "stateMutability": "pure",
      "type": "function"
    },
    {
      "inputs": [],
      "name": "EXTENDED_BALLOT_TYPEHASH",
      "outputs": [
        {
          "internalType": "bytes32",
          "name": "",
          "type": "bytes32"
        }
      ],
      "stateMutability": "view",
      "type": "function"
    },
    {
      "inputs": [
        {
          "internalType": "uint256",
          "name": "proposalId",
          "type": "uint256"
        },
        {
          "internalType": "uint8",
          "name": "support",
          "type": "uint8"
        }
      ],
      "name": "castVote",
      "outputs": [
        {
          "internalType": "uint256",
          "name": "",
          "type": "uint256"
        }
      ],
      "stateMutability": "nonpayable",
      "type": "function"
    },
    {
      "inputs": [
        {
          "internalType": "uint256",
          "name": "proposalId",
          "type": "uint256"
        },
        {
          "internalType": "uint8",
          "name": "support",
          "type": "uint8"
        },
        {
          "internalType": "uint8",
          "name": "v",
          "type": "uint8"
        },
        {
          "internalType": "bytes32",
          "name": "r",
          "type": "bytes32"
        },
        {
          "internalType": "bytes32",
          "name": "s",
          "type": "bytes32"
        }
      ],
      "name": "castVoteBySig",
      "outputs": [
        {
          "internalType": "uint256",
          "name": "",
          "type": "uint256"
        }
      ],
      "stateMutability": "nonpayable",
      "type": "function"
    },
    {
      "inputs": [
        {
          "internalType": "uint256",
          "name": "proposalId",
          "type": "uint256"
        },
        {
          "internalType": "uint8",
          "name": "support",
          "type": "uint8"
        },
        {
          "internalType": "string",
          "name": "reason",
          "type": "string"
        }
      ],
      "name": "castVoteWithReason",
      "outputs": [
        {
          "internalType": "uint256",
          "name": "",
          "type": "uint256"
        }
      ],
      "stateMutability": "nonpayable",
      "type": "function"
    },
    {
      "inputs": [
        {
          "internalType": "uint256",
          "name": "proposalId",
          "type": "uint256"
        },
        {
          "internalType": "uint8",
          "name": "support",
          "type": "uint8"
        },
        {
          "internalType": "string",
          "name": "reason",
          "type": "string"
        },
        {
          "internalType": "bytes",
          "name": "params",
          "type": "bytes"
        }
      ],
      "name": "castVoteWithReasonAndParams",
      "outputs": [
        {
          "internalType": "uint256",
          "name": "",
          "type": "uint256"
        }
      ],
      "stateMutability": "nonpayable",
      "type": "function"
    },
    {
      "inputs": [
        {
          "internalType": "uint256",
          "name": "proposalId",
          "type": "uint256"
        },
        {
          "internalType": "uint8",
          "name": "support",
          "type": "uint8"
        },
        {
          "internalType": "string",
          "name": "reason",
          "type": "string"
        },
        {
          "internalType": "bytes",
          "name": "params",
          "type": "bytes"
        },
        {
          "internalType": "uint8",
          "name": "v",
          "type": "uint8"
        },
        {
          "internalType": "bytes32",
          "name": "r",
          "type": "bytes32"
        },
        {
          "internalType": "bytes32",
          "name": "s",
          "type": "bytes32"
        }
      ],
      "name": "castVoteWithReasonAndParamsBySig",
      "outputs": [
        {
          "internalType": "uint256",
          "name": "",
          "type": "uint256"
        }
      ],
      "stateMutability": "nonpayable",
      "type": "function"
    },
    {
      "inputs": [
        {
          "internalType": "address[]",
          "name": "targets",
          "type": "address[]"
        },
        {
          "internalType": "uint256[]",
          "name": "values",
          "type": "uint256[]"
        },
        {
          "internalType": "bytes[]",
          "name": "calldatas",
          "type": "bytes[]"
        },
        {
          "internalType": "bytes32",
          "name": "descriptionHash",
          "type": "bytes32"
        }
      ],
      "name": "execute",
      "outputs": [
        {
          "internalType": "uint256",
          "name": "",
          "type": "uint256"
        }
      ],
      "stateMutability": "payable",
      "type": "function"
    },
    {
      "inputs": [
        {
          "internalType": "address",
          "name": "account",
          "type": "address"
        },
        {
          "internalType": "uint256",
          "name": "blockNumber",
          "type": "uint256"
        }
      ],
      "name": "getVotes",
      "outputs": [
        {
          "internalType": "uint256",
          "name": "",
          "type": "uint256"
        }
      ],
      "stateMutability": "view",
      "type": "function"
    },
    {
      "inputs": [
        {
          "internalType": "address",
          "name": "account",
          "type": "address"
        },
        {
          "internalType": "uint256",
          "name": "blockNumber",
          "type": "uint256"
        },
        {
          "internalType": "bytes",
          "name": "params",
          "type": "bytes"
        }
      ],
      "name": "getVotesWithParams",
      "outputs": [
        {
          "internalType": "uint256",
          "name": "",
          "type": "uint256"
        }
      ],
      "stateMutability": "view",
      "type": "function"
    },
    {
      "inputs": [
        {
          "internalType": "uint256",
          "name": "proposalId",
          "type": "uint256"
        },
        {
          "internalType": "address",
          "name": "account",
          "type": "address"
        }
      ],
      "name": "hasVoted",
      "outputs": [
        {
          "internalType": "bool",
          "name": "",
          "type": "bool"
        }
      ],
      "stateMutability": "view",
      "type": "function"
    },
    {
      "inputs": [
        {
          "internalType": "address[]",
          "name": "targets",
          "type": "address[]"
        },
        {
          "internalType": "uint256[]",
          "name": "values",
          "type": "uint256[]"
        },
        {
          "internalType": "bytes[]",
          "name": "calldatas",
          "type": "bytes[]"
        },
        {
          "internalType": "bytes32",
          "name": "descriptionHash",
          "type": "bytes32"
        }
      ],
      "name": "hashProposal",
      "outputs": [
        {
          "internalType": "uint256",
          "name": "",
          "type": "uint256"
        }
      ],
      "stateMutability": "pure",
      "type": "function"
    },
    {
      "inputs": [],
      "name": "name",
      "outputs": [
        {
          "internalType": "string",
          "name": "",
          "type": "string"
        }
      ],
      "stateMutability": "view",
      "type": "function"
    },
    {
      "inputs": [
        {
          "internalType": "address",
          "name": "",
          "type": "address"
        },
        {
          "internalType": "address",
          "name": "",
          "type": "address"
        },
        {
          "internalType": "uint256[]",
          "name": "",
          "type": "uint256[]"
        },
        {
          "internalType": "uint256[]",
          "name": "",
          "type": "uint256[]"
        },
        {
          "internalType": "bytes",
          "name": "",
          "type": "bytes"
        }
      ],
      "name": "onERC1155BatchReceived",
      "outputs": [
        {
          "internalType": "bytes4",
          "name": "",
          "type": "bytes4"
        }
      ],
      "stateMutability": "nonpayable",
      "type": "function"
    },
    {
      "inputs": [
        {
          "internalType": "address",
          "name": "",
          "type": "address"
        },
        {
          "internalType": "address",
          "name": "",
          "type": "address"
        },
        {
          "internalType": "uint256",
          "name": "",
          "type": "uint256"
        },
        {
          "internalType": "uint256",
          "name": "",
          "type": "uint256"
        },
        {
          "internalType": "bytes",
          "name": "",
          "type": "bytes"
        }
      ],
      "name": "onERC1155Received",
      "outputs": [
        {
          "internalType": "bytes4",
          "name": "",
          "type": "bytes4"
        }
      ],
      "stateMutability": "nonpayable",
      "type": "function"
    },
    {
      "inputs": [
        {
          "internalType": "address",
          "name": "",
          "type": "address"
        },
        {
          "internalType": "address",
          "name": "",
          "type": "address"
        },
        {
          "internalType": "uint256",
          "name": "",
          "type": "uint256"
        },
        {
          "internalType": "bytes",
          "name": "",
          "type": "bytes"
        }
      ],
      "name": "onERC721Received",
      "outputs": [
        {
          "internalType": "bytes4",
          "name": "",
          "type": "bytes4"
        }
      ],
      "stateMutability": "nonpayable",
      "type": "function"
    },
    {
      "inputs": [
        {
          "internalType": "uint256",
          "name": "proposalId",
          "type": "uint256"
        }
      ],
      "name": "proposalDeadline",
      "outputs": [
        {
          "internalType": "uint256",
          "name": "",
          "type": "uint256"
        }
      ],
      "stateMutability": "view",
      "type": "function"
    },
    {
      "inputs": [
        {
          "internalType": "uint256",
          "name": "proposalId",
          "type": "uint256"
        }
      ],
      "name": "proposalSnapshot",
      "outputs": [
        {
          "internalType": "uint256",
          "name": "",
          "type": "uint256"
        }
      ],
      "stateMutability": "view",
      "type": "function"
    },
    {
      "inputs": [],
      "name": "proposalThreshold",
      "outputs": [
        {
          "internalType": "uint256",
          "name": "",
          "type": "uint256"
        }
      ],
      "stateMutability": "pure",
      "type": "function"
    },
    {
      "inputs": [
        {
          "internalType": "uint256",
          "name": "proposalId",
          "type": "uint256"
        }
      ],
      "name": "proposalVotes",
      "outputs": [
        {
          "internalType": "uint256",
          "name": "againstVotes",
          "type": "uint256"
        },
        {
          "internalType": "uint256",
          "name": "forVotes",
          "type": "uint256"
        },
        {
          "internalType": "uint256",
          "name": "abstainVotes",
          "type": "uint256"
        }
      ],
      "stateMutability": "view",
      "type": "function"
    },
    {
      "inputs": [
        {
          "internalType": "address[]",
          "name": "targets",
          "type": "address[]"
        },
        {
          "internalType": "uint256[]",
          "name": "values",
          "type": "uint256[]"
        },
        {
          "internalType": "bytes[]",
          "name": "calldatas",
          "type": "bytes[]"
        },
        {
          "internalType": "string",
          "name": "description",
          "type": "string"
        }
      ],
      "name": "propose",
      "outputs": [
        {
          "internalType": "uint256",
          "name": "",
          "type": "uint256"
        }
      ],
      "stateMutability": "nonpayable",
      "type": "function"
    },
    {
      "inputs": [
        {
          "internalType": "uint256",
          "name": "blockNumber",
          "type": "uint256"
        }
      ],
      "name": "quorum",
      "outputs": [
        {
          "internalType": "uint256",
          "name": "",
          "type": "uint256"
        }
      ],
      "stateMutability": "view",
      "type": "function"
    },
    {
      "inputs": [],
      "name": "quorumDenominator",
      "outputs": [
        {
          "internalType": "uint256",
          "name": "",
          "type": "uint256"
        }
      ],
      "stateMutability": "view",
      "type": "function"
    },
    {
      "inputs": [
        {
          "internalType": "uint256",
          "name": "blockNumber",
          "type": "uint256"
        }
      ],
      "name": "quorumNumerator",
      "outputs": [
        {
          "internalType": "uint256",
          "name": "",
          "type": "uint256"
        }
      ],
      "stateMutability": "view",
      "type": "function"
    },
    {
      "inputs": [],
      "name": "quorumNumerator",
      "outputs": [
        {
          "internalType": "uint256",
          "name": "",
          "type": "uint256"
        }
      ],
      "stateMutability": "view",
      "type": "function"
    },
    {
      "inputs": [
        {
          "internalType": "address",
          "name": "target",
          "type": "address"
        },
        {
          "internalType": "uint256",
          "name": "value",
          "type": "uint256"
        },
        {
          "internalType": "bytes",
          "name": "data",
          "type": "bytes"
        }
      ],
      "name": "relay",
      "outputs": [],
      "stateMutability": "payable",
      "type": "function"
    },
    {
      "inputs": [
        {
          "internalType": "uint256",
          "name": "proposalId",
          "type": "uint256"
        }
      ],
      "name": "state",
      "outputs": [
        {
          "internalType": "enum IGovernor.ProposalState",
          "name": "",
          "type": "uint8"
        }
      ],
      "stateMutability": "view",
      "type": "function"
    },
    {
      "inputs": [
        {
          "internalType": "bytes4",
          "name": "interfaceId",
          "type": "bytes4"
        }
      ],
      "name": "supportsInterface",
      "outputs": [
        {
          "internalType": "bool",
          "name": "",
          "type": "bool"
        }
      ],
      "stateMutability": "view",
      "type": "function"
    },
    {
      "inputs": [],
      "name": "token",
      "outputs": [
        {
          "internalType": "contract IVotes",
          "name": "",
          "type": "address"
        }
      ],
      "stateMutability": "view",
      "type": "function"
    },
    {
      "inputs": [
        {
          "internalType": "uint256",
          "name": "newQuorumNumerator",
          "type": "uint256"
        }
      ],
      "name": "updateQuorumNumerator",
      "outputs": [],
      "stateMutability": "nonpayable",
      "type": "function"
    },
    {
      "inputs": [],
      "name": "version",
      "outputs": [
        {
          "internalType": "string",
          "name": "",
          "type": "string"
        }
      ],
      "stateMutability": "view",
      "type": "function"
    },
    {
      "inputs": [],
      "name": "votingDelay",
      "outputs": [
        {
          "internalType": "uint256",
          "name": "",
          "type": "uint256"
        }
      ],
      "stateMutability": "pure",
      "type": "function"
    },
    {
      "inputs": [],
      "name": "votingPeriod",
      "outputs": [
        {
          "internalType": "uint256",
          "name": "",
          "type": "uint256"
        }
      ],
      "stateMutability": "pure",
      "type": "function"
    },
    {
      "stateMutability": "payable",
      "type": "receive"
    }
  ],
  "bytecode": "0x6101606040523480156200001257600080fd5b5060405162006b7838038062006b78833981810160405281019062000038919062000a4b565b6004816040518060400160405280600a81526020017f4d79476f7665726e6f720000000000000000000000000000000000000000000081525080620000826200019660201b60201c565b60008280519060200120905060008280519060200120905060007f8b73c3c69bb8fe3d512ecc4cf759cc79239f7b179b0ffacaa9a75d522b39400f90508260e081815250508161010081815250504660a08181525050620000eb818484620001d360201b60201c565b608081815250503073ffffffffffffffffffffffffffffffffffffffff1660c08173ffffffffffffffffffffffffffffffffffffffff16815250508061012081815250505050505050806000908162000145919062000cf7565b50508073ffffffffffffffffffffffffffffffffffffffff166101408173ffffffffffffffffffffffffffffffffffffffff1681525050506200018e816200020f60201b60201c565b505062001180565b60606040518060400160405280600181526020017f3100000000000000000000000000000000000000000000000000000000000000815250905090565b60008383834630604051602001620001f095949392919062000e1b565b6040516020818303038152906040528051906020012090509392505050565b6200021f620003ee60201b60201c565b81111562000264576040517f08c379a00000000000000000000000000000000000000000000000000000000081526004016200025b9062000f25565b60405180910390fd5b600062000276620003f760201b60201c565b9050600081141580156200029257506000600660000180549050145b15620003925760066000016040518060400160405280600063ffffffff168152602001620002cb846200044d60201b62001a8c1760201c565b7bffffffffffffffffffffffffffffffffffffffffffffffffffffffff168152509080600181540180825580915050600190039060005260206000200160009091909190915060008201518160000160006101000a81548163ffffffff021916908363ffffffff16021790555060208201518160000160046101000a8154817bffffffffffffffffffffffffffffffffffffffffffffffffffffffff02191690837bffffffffffffffffffffffffffffffffffffffffffffffffffffffff16021790555050505b620003ad826006620004bb60201b62001af71790919060201c565b50507f0553476bf02ef2726e8ce5ced78d63e26e602e4a2257b1f559418e24b46339978183604051620003e292919062000f47565b60405180910390a15050565b60006064905090565b6000806006600001805490501462000444576200042060066200054b60201b62001b651760201c565b7bffffffffffffffffffffffffffffffffffffffffffffffffffffffff1662000448565b6005545b905090565b60007bffffffffffffffffffffffffffffffffffffffffffffffffffffffff8016821115620004b3576040517f08c379a0000000000000000000000000000000000000000000000000000000008152600401620004aa9062000fea565b60405180910390fd5b819050919050565b600080620004fe84600001620004dc43620005c160201b62001bcf1760201c565b620004f2866200044d60201b62001a8c1760201c565b6200061760201b60201c565b817bffffffffffffffffffffffffffffffffffffffffffffffffffffffff169150807bffffffffffffffffffffffffffffffffffffffffffffffffffffffff169050915091509250929050565b6000808260000180549050905060008114620005b65762000584836000016001836200057891906200103b565b620009b860201b60201c565b60000160049054906101000a90047bffffffffffffffffffffffffffffffffffffffffffffffffffffffff16620005b9565b60005b915050919050565b600063ffffffff80168211156200060f576040517f08c379a00000000000000000000000000000000000000000000000000000000081526004016200060690620010ec565b60405180910390fd5b819050919050565b6000806000858054905090506000811115620008c85760006200064f876001846200064391906200103b565b620009b860201b60201c565b6040518060400160405290816000820160009054906101000a900463ffffffff1663ffffffff1663ffffffff1681526020016000820160049054906101000a90047bffffffffffffffffffffffffffffffffffffffffffffffffffffffff167bffffffffffffffffffffffffffffffffffffffffffffffffffffffff167bffffffffffffffffffffffffffffffffffffffffffffffffffffffff168152505090508563ffffffff16816000015163ffffffff16111562000746576040517f08c379a00000000000000000000000000000000000000000000000000000000081526004016200073d906200115e565b60405180910390fd5b8563ffffffff16816000015163ffffffff1603620007d657846200077f886001856200077391906200103b565b620009b860201b60201c565b60000160046101000a8154817bffffffffffffffffffffffffffffffffffffffffffffffffffffffff02191690837bffffffffffffffffffffffffffffffffffffffffffffffffffffffff160217905550620008b6565b8660405180604001604052808863ffffffff168152602001877bffffffffffffffffffffffffffffffffffffffffffffffffffffffff168152509080600181540180825580915050600190039060005260206000200160009091909190915060008201518160000160006101000a81548163ffffffff021916908363ffffffff16021790555060208201518160000160046101000a8154817bffffffffffffffffffffffffffffffffffffffffffffffffffffffff02191690837bffffffffffffffffffffffffffffffffffffffffffffffffffffffff16021790555050505b806020015185935093505050620009b0565b8560405180604001604052808763ffffffff168152602001867bffffffffffffffffffffffffffffffffffffffffffffffffffffffff168152509080600181540180825580915050600190039060005260206000200160009091909190915060008201518160000160006101000a81548163ffffffff021916908363ffffffff16021790555060208201518160000160046101000a8154817bffffffffffffffffffffffffffffffffffffffffffffffffffffffff02191690837bffffffffffffffffffffffffffffffffffffffffffffffffffffffff160217905550505060008492509250505b935093915050565b60008260005281602060002001905092915050565b600080fd5b600073ffffffffffffffffffffffffffffffffffffffff82169050919050565b6000620009ff82620009d2565b9050919050565b600062000a1382620009f2565b9050919050565b62000a258162000a06565b811462000a3157600080fd5b50565b60008151905062000a458162000a1a565b92915050565b60006020828403121562000a645762000a63620009cd565b5b600062000a748482850162000a34565b91505092915050565b600081519050919050565b7f4e487b7100000000000000000000000000000000000000000000000000000000600052604160045260246000fd5b7f4e487b7100000000000000000000000000000000000000000000000000000000600052602260045260246000fd5b6000600282049050600182168062000aff57607f821691505b60208210810362000b155762000b1462000ab7565b5b50919050565b60008190508160005260206000209050919050565b60006020601f8301049050919050565b600082821b905092915050565b60006008830262000b7f7fffffffffffffffffffffffffffffffffffffffffffffffffffffffffffffffff8262000b40565b62000b8b868362000b40565b95508019841693508086168417925050509392505050565b6000819050919050565b6000819050919050565b600062000bd862000bd262000bcc8462000ba3565b62000bad565b62000ba3565b9050919050565b6000819050919050565b62000bf48362000bb7565b62000c0c62000c038262000bdf565b84845462000b4d565b825550505050565b600090565b62000c2362000c14565b62000c3081848462000be9565b505050565b5b8181101562000c585762000c4c60008262000c19565b60018101905062000c36565b5050565b601f82111562000ca75762000c718162000b1b565b62000c7c8462000b30565b8101602085101562000c8c578190505b62000ca462000c9b8562000b30565b83018262000c35565b50505b505050565b600082821c905092915050565b600062000ccc6000198460080262000cac565b1980831691505092915050565b600062000ce7838362000cb9565b9150826002028217905092915050565b62000d028262000a7d565b67ffffffffffffffff81111562000d1e5762000d1d62000a88565b5b62000d2a825462000ae6565b62000d3782828562000c5c565b600060209050601f83116001811462000d6f576000841562000d5a578287015190505b62000d66858262000cd9565b86555062000dd6565b601f19841662000d7f8662000b1b565b60005b8281101562000da95784890151825560018201915060208501945060208101905062000d82565b8683101562000dc9578489015162000dc5601f89168262000cb9565b8355505b6001600288020188555050505b505050505050565b6000819050919050565b62000df38162000dde565b82525050565b62000e048162000ba3565b82525050565b62000e1581620009f2565b82525050565b600060a08201905062000e32600083018862000de8565b62000e41602083018762000de8565b62000e50604083018662000de8565b62000e5f606083018562000df9565b62000e6e608083018462000e0a565b9695505050505050565b600082825260208201905092915050565b7f476f7665726e6f72566f74657351756f72756d4672616374696f6e3a2071756f60008201527f72756d4e756d657261746f72206f7665722071756f72756d44656e6f6d696e6160208201527f746f720000000000000000000000000000000000000000000000000000000000604082015250565b600062000f0d60438362000e78565b915062000f1a8262000e89565b606082019050919050565b6000602082019050818103600083015262000f408162000efe565b9050919050565b600060408201905062000f5e600083018562000df9565b62000f6d602083018462000df9565b9392505050565b7f53616665436173743a2076616c756520646f65736e27742066697420696e203260008201527f3234206269747300000000000000000000000000000000000000000000000000602082015250565b600062000fd260278362000e78565b915062000fdf8262000f74565b604082019050919050565b60006020820190508181036000830152620010058162000fc3565b9050919050565b7f4e487b7100000000000000000000000000000000000000000000000000000000600052601160045260246000fd5b6000620010488262000ba3565b9150620010558362000ba3565b925082820390508181111562001070576200106f6200100c565b5b92915050565b7f53616665436173743a2076616c756520646f65736e27742066697420696e203360008201527f3220626974730000000000000000000000000000000000000000000000000000602082015250565b6000620010d460268362000e78565b9150620010e18262001076565b604082019050919050565b600060208201905081810360008301526200110781620010c5565b9050919050565b7f436865636b706f696e743a20696e76616c6964206b6579000000000000000000600082015250565b60006200114660178362000e78565b915062001153826200110e565b602082019050919050565b60006020820190508181036000830152620011798162001137565b9050919050565b60805160a05160c05160e05161010051610120516101405161598f620011e960003960008181611a6a015281816125b201526126a301526000612b9f01526000612be101526000612bc001526000612af501526000612b4b01526000612b74015261598f6000f3fe6080604052600436106101fd5760003560e01c806360c4247f1161010d578063c01f9e37116100a0578063deaaa7cc1161006f578063deaaa7cc1461084f578063eb9019d41461087a578063f23a6e61146108b7578063f8ce560a146108f4578063fc0c546a1461093157610243565b8063c01f9e371461078e578063c28bc2fa146107cb578063c59057e4146107e7578063dd4e2ba51461082457610243565b80639a802a6d116100dc5780639a802a6d146106be578063a7713a70146106fb578063b58131b014610726578063bc197c811461075157610243565b806360c4247f146105dc5780637b3c71d3146106195780637d5e81e21461065657806397c3d3341461069357610243565b80632fe3e26111610190578063438596321161015f57806343859632146104bb578063544ffc9c146104f857806354fd4d501461053757806356781388146105625780635f398a141461059f57610243565b80632fe3e261146103eb5780633932abb1146104165780633bccf4fd146104415780633e4f49e61461047e57610243565b806306fdde03116101cc57806306fdde0314610316578063150b7a02146103415780632656227d1461037e5780632d63f693146103ae57610243565b806301ffc9a71461024857806302a251a31461028557806303420181146102b057806306f3f9e6146102ed57610243565b36610243573073ffffffffffffffffffffffffffffffffffffffff1661022161095c565b73ffffffffffffffffffffffffffffffffffffffff161461024157600080fd5b005b600080fd5b34801561025457600080fd5b5061026f600480360381019061026a919061334b565b610964565b60405161027c9190613393565b60405180910390f35b34801561029157600080fd5b5061029a610ac9565b6040516102a791906133c7565b60405180910390f35b3480156102bc57600080fd5b506102d760048036038101906102d29190613623565b610ad3565b6040516102e491906133c7565b60405180910390f35b3480156102f957600080fd5b50610314600480360381019061030f9190613701565b610bb8565b005b34801561032257600080fd5b5061032b610caf565b60405161033891906137ad565b60405180910390f35b34801561034d57600080fd5b506103686004803603810190610363919061382d565b610d41565b60405161037591906138bf565b60405180910390f35b61039860048036038101906103939190613b41565b610d55565b6040516103a591906133c7565b60405180910390f35b3480156103ba57600080fd5b506103d560048036038101906103d09190613701565b610ea2565b6040516103e291906133c7565b60405180910390f35b3480156103f757600080fd5b50610400610f10565b60405161040d9190613c0b565b60405180910390f35b34801561042257600080fd5b5061042b610f34565b60405161043891906133c7565b60405180910390f35b34801561044d57600080fd5b5061046860048036038101906104639190613c26565b610f3d565b60405161047591906133c7565b60405180910390f35b34801561048a57600080fd5b506104a560048036038101906104a09190613701565b610fc7565b6040516104b29190613d18565b60405180910390f35b3480156104c757600080fd5b506104e260048036038101906104dd9190613d33565b6110db565b6040516104ef9190613393565b60405180910390f35b34801561050457600080fd5b5061051f600480360381019061051a9190613701565b611146565b60405161052e93929190613d73565b60405180910390f35b34801561054357600080fd5b5061054c61117e565b60405161055991906137ad565b60405180910390f35b34801561056e57600080fd5b5061058960048036038101906105849190613daa565b6111bb565b60405161059691906133c7565b60405180910390f35b3480156105ab57600080fd5b506105c660048036038101906105c19190613dea565b6111ec565b6040516105d391906133c7565b60405180910390f35b3480156105e857600080fd5b5061060360048036038101906105fe9190613701565b611256565b60405161061091906133c7565b60405180910390f35b34801561062557600080fd5b50610640600480360381019061063b9190613e8e565b6113a2565b60405161064d91906133c7565b60405180910390f35b34801561066257600080fd5b5061067d60048036038101906106789190613fa3565b61140a565b60405161068a91906133c7565b60405180910390f35b34801561069f57600080fd5b506106a8611711565b6040516106b591906133c7565b60405180910390f35b3480156106ca57600080fd5b506106e560048036038101906106e0919061407a565b61171a565b6040516106f291906133c7565b60405180910390f35b34801561070757600080fd5b50610710611730565b60405161071d91906133c7565b60405180910390f35b34801561073257600080fd5b5061073b611777565b60405161074891906133c7565b60405180910390f35b34801561075d57600080fd5b50610778600480360381019061077391906140e9565b61177c565b60405161078591906138bf565b60405180910390f35b34801561079a57600080fd5b506107b560048036038101906107b09190613701565b611791565b6040516107c291906133c7565b60405180910390f35b6107e560048036038101906107e0919061420e565b6117ff565b005b3480156107f357600080fd5b5061080e60048036038101906108099190613b41565b611988565b60405161081b91906133c7565b60405180910390f35b34801561083057600080fd5b506108396119c4565b60405161084691906137ad565b60405180910390f35b34801561085b57600080fd5b50610864611a01565b6040516108719190613c0b565b60405180910390f35b34801561088657600080fd5b506108a1600480360381019061089c9190614282565b611a25565b6040516108ae91906133c7565b60405180910390f35b3480156108c357600080fd5b506108de60048036038101906108d991906142c2565b611a41565b6040516108eb91906138bf565b60405180910390f35b34801561090057600080fd5b5061091b60048036038101906109169190613701565b611a56565b60405161092891906133c7565b60405180910390f35b34801561093d57600080fd5b50610946611a68565b60405161095391906143b8565b60405180910390f35b600030905090565b6000639a802a6d60e01b630342018160e01b635f398a1460e01b7f79dd796f000000000000000000000000000000000000000000000000000000001818187bffffffffffffffffffffffffffffffffffffffffffffffffffffffff1916827bffffffffffffffffffffffffffffffffffffffffffffffffffffffff19161480610a4a57507f79dd796f000000000000000000000000000000000000000000000000000000007bffffffffffffffffffffffffffffffffffffffffffffffffffffffff1916827bffffffffffffffffffffffffffffffffffffffffffffffffffffffff1916145b80610ab257507f4e2312e0000000000000000000000000000000000000000000000000000000007bffffffffffffffffffffffffffffffffffffffffffffffffffffffff1916827bffffffffffffffffffffffffffffffffffffffffffffffffffffffff1916145b80610ac25750610ac182611c22565b5b9050919050565b600061b2fa905090565b600080610b56610b4e7fb3b3f3b703cd84ce352197dcff232b1b5d3cfb2025ce47cf04742d0651f1af888c8c8c8c604051610b0f929190614403565b60405180910390208b80519060200120604051602001610b3395949392919061442b565b60405160208183030381529060405280519060200120611c8c565b868686611ca6565b9050610ba98a828b8b8b8080601f016020809104026020016040519081016040528093929190818152602001838380828437600081840152601f19601f820116905080830192505050505050508a611cd1565b91505098975050505050505050565b610bc061095c565b73ffffffffffffffffffffffffffffffffffffffff16610bde611e8d565b73ffffffffffffffffffffffffffffffffffffffff1614610c34576040517f08c379a0000000000000000000000000000000000000000000000000000000008152600401610c2b906144ca565b60405180910390fd5b3073ffffffffffffffffffffffffffffffffffffffff16610c5361095c565b73ffffffffffffffffffffffffffffffffffffffff1614610ca3576000610c78611e95565b604051610c86929190614403565b604051809103902090505b80610c9c6002611ea2565b03610c9157505b610cac81611f7e565b50565b606060008054610cbe90614519565b80601f0160208091040260200160405190810160405280929190818152602001828054610cea90614519565b8015610d375780601f10610d0c57610100808354040283529160200191610d37565b820191906000526020600020905b815481529060010190602001808311610d1a57829003601f168201915b5050505050905090565b600063150b7a0260e01b9050949350505050565b600080610d6486868686611988565b90506000610d7182610fc7565b905060046007811115610d8757610d86613ca1565b5b816007811115610d9a57610d99613ca1565b5b1480610dca575060056007811115610db557610db4613ca1565b5b816007811115610dc857610dc7613ca1565b5b145b610e09576040517f08c379a0000000000000000000000000000000000000000000000000000000008152600401610e00906145bc565b60405180910390fd5b600180600084815260200190815260200160002060020160006101000a81548160ff0219169083151502179055507f712ae1383f79ac853f8d882153778e0260ef8f03b504e2866e0593e04d2b291f82604051610e6691906133c7565b60405180910390a1610e7b8288888888612132565b610e888288888888612215565b610e958288888888612324565b8192505050949350505050565b6000610eff600160008481526020019081526020016000206000016040518060200160405290816000820160009054906101000a900467ffffffffffffffff1667ffffffffffffffff1667ffffffffffffffff168152505061237f565b67ffffffffffffffff169050919050565b7fb3b3f3b703cd84ce352197dcff232b1b5d3cfb2025ce47cf04742d0651f1af8881565b60006001905090565b600080610f9e610f967f150214d74d59b7d1e90c73fc22ef3d991dd0a76b046543d4d80ab92d2a50328f8989604051602001610f7b939291906145dc565b60405160208183030381529060405280519060200120611c8c565b868686611ca6565b9050610fbb8782886040518060200160405280600081525061238d565b91505095945050505050565b6000806001600084815260200190815260200160002090508060020160009054906101000a900460ff16156110005760079150506110d6565b8060020160019054906101000a900460ff16156110215760029150506110d6565b600061102c84610ea2565b905060008103611071576040517f08c379a00000000000000000000000000000000000000000000000000000000081526004016110689061465f565b60405180910390fd5b438110611083576000925050506110d6565b600061108e85611791565b90504381106110a357600193505050506110d6565b6110ac856123ad565b80156110bd57506110bc856123f4565b5b156110ce57600493505050506110d6565b600393505050505b919050565b60006004600084815260200190815260200160002060030160008373ffffffffffffffffffffffffffffffffffffffff1673ffffffffffffffffffffffffffffffffffffffff16815260200190815260200160002060009054906101000a900460ff16905092915050565b600080600080600460008681526020019081526020016000209050806000015481600101548260020154935093509350509193909250565b60606040518060400160405280600181526020017f3100000000000000000000000000000000000000000000000000000000000000815250905090565b6000806111c6611e8d565b90506111e38482856040518060200160405280600081525061238d565b91505092915050565b6000806111f7611e8d565b905061124a87828888888080601f016020809104026020016040519081016040528093929190818152602001838380828437600081840152601f19601f8201169050808301925050505050505087611cd1565b91505095945050505050565b6000806006600001805490509050600081036112775760055491505061139d565b6000600660000160018361128b91906146ae565b8154811061129c5761129b6146e2565b5b906000526020600020016040518060400160405290816000820160009054906101000a900463ffffffff1663ffffffff1663ffffffff1681526020016000820160049054906101000a90047bffffffffffffffffffffffffffffffffffffffffffffffffffffffff167bffffffffffffffffffffffffffffffffffffffffffffffffffffffff167bffffffffffffffffffffffffffffffffffffffffffffffffffffffff1681525050905083816000015163ffffffff16116113845780602001517bffffffffffffffffffffffffffffffffffffffffffffffffffffffff169250505061139d565b61139884600661241f90919063ffffffff16565b925050505b919050565b6000806113ad611e8d565b90506113ff86828787878080601f016020809104026020016040519081016040528093929190818152602001838380828437600081840152601f19601f8201169050808301925050505050505061238d565b915050949350505050565b6000611414611777565b61143161141f611e8d565b60014361142c91906146ae565b611a25565b1015611472576040517f08c379a000000000000000000000000000000000000000000000000000000000815260040161146990614783565b60405180910390fd5b60006114878686868680519060200120611988565b905084518651146114cd576040517f08c379a00000000000000000000000000000000000000000000000000000000081526004016114c490614815565b60405180910390fd5b8351865114611511576040517f08c379a000000000000000000000000000000000000000000000000000000000815260040161150890614815565b60405180910390fd5b6000865111611555576040517f08c379a000000000000000000000000000000000000000000000000000000000815260040161154c90614881565b60405180910390fd5b60006001600083815260200190815260200160002090506115b5816000016040518060200160405290816000820160009054906101000a900467ffffffffffffffff1667ffffffffffffffff1667ffffffffffffffff168152505061250e565b6115f4576040517f08c379a00000000000000000000000000000000000000000000000000000000081526004016115eb90614913565b60405180910390fd5b6000611606611601610f34565b612528565b61160f43612528565b6116199190614947565b9050600061162d611628610ac9565b612528565b826116389190614947565b9050611650828460000161257f90919063ffffffff16565b611666818460010161257f90919063ffffffff16565b7f7d84a6263ae0d98d3329bd7b46bb4e8d6f98cd35a7adb45c274c8b7fd5ebd5e084611690611e8d565b8b8b8d5167ffffffffffffffff8111156116ad576116ac6134c2565b5b6040519080825280602002602001820160405280156116e057816020015b60608152602001906001900390816116cb5790505b508c88888e6040516116fa99989796959493929190614d62565b60405180910390a183945050505050949350505050565b60006064905090565b60006117278484846125ae565b90509392505050565b6000806006600001805490501461176e5761174b6006611b65565b7bffffffffffffffffffffffffffffffffffffffffffffffffffffffff16611772565b6005545b905090565b600090565b600063bc197c8160e01b905095945050505050565b60006117ee600160008481526020019081526020016000206001016040518060200160405290816000820160009054906101000a900467ffffffffffffffff1667ffffffffffffffff1667ffffffffffffffff168152505061237f565b67ffffffffffffffff169050919050565b61180761095c565b73ffffffffffffffffffffffffffffffffffffffff16611825611e8d565b73ffffffffffffffffffffffffffffffffffffffff161461187b576040517f08c379a0000000000000000000000000000000000000000000000000000000008152600401611872906144ca565b60405180910390fd5b3073ffffffffffffffffffffffffffffffffffffffff1661189a61095c565b73ffffffffffffffffffffffffffffffffffffffff16146118ea5760006118bf611e95565b6040516118cd929190614403565b604051809103902090505b806118e36002611ea2565b036118d857505b6000808573ffffffffffffffffffffffffffffffffffffffff16858585604051611915929190614403565b60006040518083038185875af1925050503d8060008114611952576040519150601f19603f3d011682016040523d82523d6000602084013e611957565b606091505b509150915061197f828260405180606001604052806028815260200161590b60289139612655565b50505050505050565b6000848484846040516020016119a19493929190614e12565b6040516020818303038152906040528051906020012060001c9050949350505050565b60606040518060400160405280602081526020017f737570706f72743d627261766f2671756f72756d3d666f722c6162737461696e815250905090565b7f150214d74d59b7d1e90c73fc22ef3d991dd0a76b046543d4d80ab92d2a50328f81565b6000611a398383611a34612677565b6125ae565b905092915050565b600063f23a6e6160e01b905095945050505050565b6000611a618261268e565b9050919050565b7f000000000000000000000000000000000000000000000000000000000000000081565b60007bffffffffffffffffffffffffffffffffffffffffffffffffffffffff8016821115611aef576040517f08c379a0000000000000000000000000000000000000000000000000000000008152600401611ae690614ede565b60405180910390fd5b819050919050565b600080611b1884600001611b0a43611bcf565b611b1386611a8c565b612756565b817bffffffffffffffffffffffffffffffffffffffffffffffffffffffff169150807bffffffffffffffffffffffffffffffffffffffffffffffffffffffff169050915091509250929050565b6000808260000180549050905060008114611bc457611b9383600001600183611b8e91906146ae565b612adc565b60000160049054906101000a90047bffffffffffffffffffffffffffffffffffffffffffffffffffffffff16611bc7565b60005b915050919050565b600063ffffffff8016821115611c1a576040517f08c379a0000000000000000000000000000000000000000000000000000000008152600401611c1190614f70565b60405180910390fd5b819050919050565b60007f01ffc9a7000000000000000000000000000000000000000000000000000000007bffffffffffffffffffffffffffffffffffffffffffffffffffffffff1916827bffffffffffffffffffffffffffffffffffffffffffffffffffffffff1916149050919050565b6000611c9f611c99612af1565b83612c0b565b9050919050565b6000806000611cb787878787612c3e565b91509150611cc481612d20565b8192505050949350505050565b60008060016000888152602001908152602001600020905060016007811115611cfd57611cfc613ca1565b5b611d0688610fc7565b6007811115611d1857611d17613ca1565b5b14611d58576040517f08c379a0000000000000000000000000000000000000000000000000000000008152600401611d4f90615002565b60405180910390fd5b6000611db787611da7846000016040518060200160405290816000820160009054906101000a900467ffffffffffffffff1667ffffffffffffffff1667ffffffffffffffff168152505061237f565b67ffffffffffffffff16866125ae565b9050611dc68888888488612e86565b6000845103611e28578673ffffffffffffffffffffffffffffffffffffffff167fb8e138887d0aa13bab447e82de9d5c1777041ecd21ca36ba824ff1e6c07ddda489888489604051611e1b9493929190615022565b60405180910390a2611e7f565b8673ffffffffffffffffffffffffffffffffffffffff167fe2babfbac5889a709b63bb7f598b324e08bc5a4fb9ec647fb3cbc9ec07eb87128988848989604051611e769594939291906150b8565b60405180910390a25b809250505095945050505050565b600033905090565b3660008036915091509091565b6000611ead8261308a565b15611ee4576040517f3db2a12a00000000000000000000000000000000000000000000000000000000815260040160405180910390fd5b60008260000160009054906101000a9004600f0b905082600101600082600f0b600f0b815260200190815260200160002054915082600101600082600f0b600f0b815260200190815260200160002060009055600181018360000160006101000a8154816fffffffffffffffffffffffffffffffff0219169083600f0b6fffffffffffffffffffffffffffffffff16021790555050919050565b611f86611711565b811115611fc8576040517f08c379a0000000000000000000000000000000000000000000000000000000008152600401611fbf906151b1565b60405180910390fd5b6000611fd2611730565b905060008114158015611fed57506000600660000180549050145b156120df5760066000016040518060400160405280600063ffffffff16815260200161201884611a8c565b7bffffffffffffffffffffffffffffffffffffffffffffffffffffffff168152509080600181540180825580915050600190039060005260206000200160009091909190915060008201518160000160006101000a81548163ffffffff021916908363ffffffff16021790555060208201518160000160046101000a8154817bffffffffffffffffffffffffffffffffffffffffffffffffffffffff02191690837bffffffffffffffffffffffffffffffffffffffffffffffffffffffff16021790555050505b6120f3826006611af790919063ffffffff16565b50507f0553476bf02ef2726e8ce5ced78d63e26e602e4a2257b1f559418e24b463399781836040516121269291906151d1565b60405180910390a15050565b3073ffffffffffffffffffffffffffffffffffffffff1661215161095c565b73ffffffffffffffffffffffffffffffffffffffff161461220e5760005b845181101561220c573073ffffffffffffffffffffffffffffffffffffffff168582815181106121a2576121a16146e2565b5b602002602001015173ffffffffffffffffffffffffffffffffffffffff16036121fb576121fa8382815181106121db576121da6146e2565b5b60200260200101518051906020012060026130bf90919063ffffffff16565b5b80612205906151fa565b905061216f565b505b5050505050565b600060405180606001604052806027815260200161593360279139905060005b855181101561231b57600080878381518110612254576122536146e2565b5b602002602001015173ffffffffffffffffffffffffffffffffffffffff16878481518110612285576122846146e2565b5b60200260200101518785815181106122a05761229f6146e2565b5b60200260200101516040516122b59190615273565b60006040518083038185875af1925050503d80600081146122f2576040519150601f19603f3d011682016040523d82523d6000602084013e6122f7565b606091505b5091509150612307828286612655565b50505080612314906151fa565b9050612235565b50505050505050565b3073ffffffffffffffffffffffffffffffffffffffff1661234361095c565b73ffffffffffffffffffffffffffffffffffffffff161461237857612368600261308a565b61237757612376600261313b565b5b5b5050505050565b600081600001519050919050565b60006123a38585858561239e612677565b611cd1565b9050949350505050565b600080600460008481526020019081526020016000209050806002015481600101546123d9919061528a565b6123ea6123e585610ea2565b611a56565b1115915050919050565b6000806004600084815260200190815260200160002090508060000154816001015411915050919050565b6000438210612463576040517f08c379a000000000000000000000000000000000000000000000000000000000815260040161245a9061530a565b60405180910390fd5b600061246e83611bcf565b9050600084600001805490509050600061248e86600001846000856131bc565b9050600081146124e2576124b1866000016001836124ac91906146ae565b612adc565b60000160049054906101000a90047bffffffffffffffffffffffffffffffffffffffffffffffffffffffff166124e5565b60005b7bffffffffffffffffffffffffffffffffffffffffffffffffffffffff16935050505092915050565b600080826000015167ffffffffffffffff16149050919050565b600067ffffffffffffffff8016821115612577576040517f08c379a000000000000000000000000000000000000000000000000000000000815260040161256e9061539c565b60405180910390fd5b819050919050565b808260000160006101000a81548167ffffffffffffffff021916908367ffffffffffffffff1602179055505050565b60007f000000000000000000000000000000000000000000000000000000000000000073ffffffffffffffffffffffffffffffffffffffff16633a46b1a885856040518363ffffffff1660e01b815260040161260b9291906153bc565b602060405180830381865afa158015612628573d6000803e3d6000fd5b505050506040513d601f19601f8201168201806040525081019061264c91906153fa565b90509392505050565b6060831561266557829050612670565b61266f838361322f565b5b9392505050565b606060405180602001604052806000815250905090565b6000612698611711565b6126a183611256565b7f000000000000000000000000000000000000000000000000000000000000000073ffffffffffffffffffffffffffffffffffffffff16638e539e8c856040518263ffffffff1660e01b81526004016126fa91906133c7565b602060405180830381865afa158015612717573d6000803e3d6000fd5b505050506040513d601f19601f8201168201806040525081019061273b91906153fa565b6127459190615427565b61274f9190615498565b9050919050565b60008060008580549050905060008111156129ec5760006127838760018461277e91906146ae565b612adc565b6040518060400160405290816000820160009054906101000a900463ffffffff1663ffffffff1663ffffffff1681526020016000820160049054906101000a90047bffffffffffffffffffffffffffffffffffffffffffffffffffffffff167bffffffffffffffffffffffffffffffffffffffffffffffffffffffff167bffffffffffffffffffffffffffffffffffffffffffffffffffffffff168152505090508563ffffffff16816000015163ffffffff161115612877576040517f08c379a000000000000000000000000000000000000000000000000000000000815260040161286e90615515565b60405180910390fd5b8563ffffffff16816000015163ffffffff16036128fb57846128a5886001856128a091906146ae565b612adc565b60000160046101000a8154817bffffffffffffffffffffffffffffffffffffffffffffffffffffffff02191690837bffffffffffffffffffffffffffffffffffffffffffffffffffffffff1602179055506129db565b8660405180604001604052808863ffffffff168152602001877bffffffffffffffffffffffffffffffffffffffffffffffffffffffff168152509080600181540180825580915050600190039060005260206000200160009091909190915060008201518160000160006101000a81548163ffffffff021916908363ffffffff16021790555060208201518160000160046101000a8154817bffffffffffffffffffffffffffffffffffffffffffffffffffffffff02191690837bffffffffffffffffffffffffffffffffffffffffffffffffffffffff16021790555050505b806020015185935093505050612ad4565b8560405180604001604052808763ffffffff168152602001867bffffffffffffffffffffffffffffffffffffffffffffffffffffffff168152509080600181540180825580915050600190039060005260206000200160009091909190915060008201518160000160006101000a81548163ffffffff021916908363ffffffff16021790555060208201518160000160046101000a8154817bffffffffffffffffffffffffffffffffffffffffffffffffffffffff02191690837bffffffffffffffffffffffffffffffffffffffffffffffffffffffff160217905550505060008492509250505b935093915050565b60008260005281602060002001905092915050565b60007f000000000000000000000000000000000000000000000000000000000000000073ffffffffffffffffffffffffffffffffffffffff163073ffffffffffffffffffffffffffffffffffffffff16148015612b6d57507f000000000000000000000000000000000000000000000000000000000000000046145b15612b9a577f00000000000000000000000000000000000000000000000000000000000000009050612c08565b612c057f00000000000000000000000000000000000000000000000000000000000000007f00000000000000000000000000000000000000000000000000000000000000007f000000000000000000000000000000000000000000000000000000000000000061327f565b90505b90565b60008282604051602001612c209291906155ad565b60405160208183030381529060405280519060200120905092915050565b6000807f7fffffffffffffffffffffffffffffff5d576e7357a4501ddfe92f46681b20a08360001c1115612c79576000600391509150612d17565b600060018787878760405160008152602001604052604051612c9e94939291906155e4565b6020604051602081039080840390855afa158015612cc0573d6000803e3d6000fd5b505050602060405103519050600073ffffffffffffffffffffffffffffffffffffffff168173ffffffffffffffffffffffffffffffffffffffff1603612d0e57600060019250925050612d17565b80600092509250505b94509492505050565b60006004811115612d3457612d33613ca1565b5b816004811115612d4757612d46613ca1565b5b0315612e835760016004811115612d6157612d60613ca1565b5b816004811115612d7457612d73613ca1565b5b03612db4576040517f08c379a0000000000000000000000000000000000000000000000000000000008152600401612dab90615675565b60405180910390fd5b60026004811115612dc857612dc7613ca1565b5b816004811115612ddb57612dda613ca1565b5b03612e1b576040517f08c379a0000000000000000000000000000000000000000000000000000000008152600401612e12906156e1565b60405180910390fd5b60036004811115612e2f57612e2e613ca1565b5b816004811115612e4257612e41613ca1565b5b03612e82576040517f08c379a0000000000000000000000000000000000000000000000000000000008152600401612e7990615773565b60405180910390fd5b5b50565b60006004600087815260200190815260200160002090508060030160008673ffffffffffffffffffffffffffffffffffffffff1673ffffffffffffffffffffffffffffffffffffffff16815260200190815260200160002060009054906101000a900460ff1615612f2c576040517f08c379a0000000000000000000000000000000000000000000000000000000008152600401612f2390615805565b60405180910390fd5b60018160030160008773ffffffffffffffffffffffffffffffffffffffff1673ffffffffffffffffffffffffffffffffffffffff16815260200190815260200160002060006101000a81548160ff02191690831515021790555060006002811115612f9a57612f99613ca1565b5b60ff168460ff1603612fc65782816000016000828254612fba919061528a565b92505081905550613082565b60016002811115612fda57612fd9613ca1565b5b60ff168460ff16036130065782816001016000828254612ffa919061528a565b92505081905550613081565b60028081111561301957613018613ca1565b5b60ff168460ff16036130455782816002016000828254613039919061528a565b92505081905550613080565b6040517f08c379a000000000000000000000000000000000000000000000000000000000815260040161307790615897565b60405180910390fd5b5b5b505050505050565b60008160000160009054906101000a9004600f0b600f0b8260000160109054906101000a9004600f0b600f0b13159050919050565b60008260000160109054906101000a9004600f0b90508183600101600083600f0b600f0b815260200190815260200160002081905550600181018360000160106101000a8154816fffffffffffffffffffffffffffffffff0219169083600f0b6fffffffffffffffffffffffffffffffff160217905550505050565b60008160000160006101000a8154816fffffffffffffffffffffffffffffffff0219169083600f0b6fffffffffffffffffffffffffffffffff16021790555060008160000160106101000a8154816fffffffffffffffffffffffffffffffff0219169083600f0b6fffffffffffffffffffffffffffffffff16021790555050565b60005b818310156132245760006131d384846132b9565b90508463ffffffff166131e68783612adc565b60000160009054906101000a900463ffffffff1663ffffffff16111561320e5780925061321e565b60018161321b919061528a565b93505b506131bf565b819050949350505050565b6000825111156132425781518083602001fd5b806040517f08c379a000000000000000000000000000000000000000000000000000000000815260040161327691906137ad565b60405180910390fd5b6000838383463060405160200161329a9594939291906158b7565b6040516020818303038152906040528051906020012090509392505050565b600060028284186132ca9190615498565b8284166132d7919061528a565b905092915050565b6000604051905090565b600080fd5b600080fd5b60007fffffffff0000000000000000000000000000000000000000000000000000000082169050919050565b613328816132f3565b811461333357600080fd5b50565b6000813590506133458161331f565b92915050565b600060208284031215613361576133606132e9565b5b600061336f84828501613336565b91505092915050565b60008115159050919050565b61338d81613378565b82525050565b60006020820190506133a86000830184613384565b92915050565b6000819050919050565b6133c1816133ae565b82525050565b60006020820190506133dc60008301846133b8565b92915050565b6133eb816133ae565b81146133f657600080fd5b50565b600081359050613408816133e2565b92915050565b600060ff82169050919050565b6134248161340e565b811461342f57600080fd5b50565b6000813590506134418161341b565b92915050565b600080fd5b600080fd5b600080fd5b60008083601f84011261346c5761346b613447565b5b8235905067ffffffffffffffff8111156134895761348861344c565b5b6020830191508360018202830111156134a5576134a4613451565b5b9250929050565b600080fd5b6000601f19601f8301169050919050565b7f4e487b7100000000000000000000000000000000000000000000000000000000600052604160045260246000fd5b6134fa826134b1565b810181811067ffffffffffffffff82111715613519576135186134c2565b5b80604052505050565b600061352c6132df565b905061353882826134f1565b919050565b600067ffffffffffffffff821115613558576135576134c2565b5b613561826134b1565b9050602081019050919050565b82818337600083830152505050565b600061359061358b8461353d565b613522565b9050828152602081018484840111156135ac576135ab6134ac565b5b6135b784828561356e565b509392505050565b600082601f8301126135d4576135d3613447565b5b81356135e484826020860161357d565b91505092915050565b6000819050919050565b613600816135ed565b811461360b57600080fd5b50565b60008135905061361d816135f7565b92915050565b60008060008060008060008060e0898b031215613643576136426132e9565b5b60006136518b828c016133f9565b98505060206136628b828c01613432565b975050604089013567ffffffffffffffff811115613683576136826132ee565b5b61368f8b828c01613456565b9650965050606089013567ffffffffffffffff8111156136b2576136b16132ee565b5b6136be8b828c016135bf565b94505060806136cf8b828c01613432565b93505060a06136e08b828c0161360e565b92505060c06136f18b828c0161360e565b9150509295985092959890939650565b600060208284031215613717576137166132e9565b5b6000613725848285016133f9565b91505092915050565b600081519050919050565b600082825260208201905092915050565b60005b8381101561376857808201518184015260208101905061374d565b60008484015250505050565b600061377f8261372e565b6137898185613739565b935061379981856020860161374a565b6137a2816134b1565b840191505092915050565b600060208201905081810360008301526137c78184613774565b905092915050565b600073ffffffffffffffffffffffffffffffffffffffff82169050919050565b60006137fa826137cf565b9050919050565b61380a816137ef565b811461381557600080fd5b50565b60008135905061382781613801565b92915050565b60008060008060808587031215613847576138466132e9565b5b600061385587828801613818565b945050602061386687828801613818565b9350506040613877878288016133f9565b925050606085013567ffffffffffffffff811115613898576138976132ee565b5b6138a4878288016135bf565b91505092959194509250565b6138b9816132f3565b82525050565b60006020820190506138d460008301846138b0565b92915050565b600067ffffffffffffffff8211156138f5576138f46134c2565b5b602082029050602081019050919050565b6000613919613914846138da565b613522565b9050808382526020820190506020840283018581111561393c5761393b613451565b5b835b8181101561396557806139518882613818565b84526020840193505060208101905061393e565b5050509392505050565b600082601f83011261398457613983613447565b5b8135613994848260208601613906565b91505092915050565b600067ffffffffffffffff8211156139b8576139b76134c2565b5b602082029050602081019050919050565b60006139dc6139d78461399d565b613522565b905080838252602082019050602084028301858111156139ff576139fe613451565b5b835b81811015613a285780613a1488826133f9565b845260208401935050602081019050613a01565b5050509392505050565b600082601f830112613a4757613a46613447565b5b8135613a578482602086016139c9565b91505092915050565b600067ffffffffffffffff821115613a7b57613a7a6134c2565b5b602082029050602081019050919050565b6000613a9f613a9a84613a60565b613522565b90508083825260208201905060208402830185811115613ac257613ac1613451565b5b835b81811015613b0957803567ffffffffffffffff811115613ae757613ae6613447565b5b808601613af489826135bf565b85526020850194505050602081019050613ac4565b5050509392505050565b600082601f830112613b2857613b27613447565b5b8135613b38848260208601613a8c565b91505092915050565b60008060008060808587031215613b5b57613b5a6132e9565b5b600085013567ffffffffffffffff811115613b7957613b786132ee565b5b613b858782880161396f565b945050602085013567ffffffffffffffff811115613ba657613ba56132ee565b5b613bb287828801613a32565b935050604085013567ffffffffffffffff811115613bd357613bd26132ee565b5b613bdf87828801613b13565b9250506060613bf08782880161360e565b91505092959194509250565b613c05816135ed565b82525050565b6000602082019050613c206000830184613bfc565b92915050565b600080600080600060a08688031215613c4257613c416132e9565b5b6000613c50888289016133f9565b9550506020613c6188828901613432565b9450506040613c7288828901613432565b9350506060613c838882890161360e565b9250506080613c948882890161360e565b9150509295509295909350565b7f4e487b7100000000000000000000000000000000000000000000000000000000600052602160045260246000fd5b60088110613ce157613ce0613ca1565b5b50565b6000819050613cf282613cd0565b919050565b6000613d0282613ce4565b9050919050565b613d1281613cf7565b82525050565b6000602082019050613d2d6000830184613d09565b92915050565b60008060408385031215613d4a57613d496132e9565b5b6000613d58858286016133f9565b9250506020613d6985828601613818565b9150509250929050565b6000606082019050613d8860008301866133b8565b613d9560208301856133b8565b613da260408301846133b8565b949350505050565b60008060408385031215613dc157613dc06132e9565b5b6000613dcf858286016133f9565b9250506020613de085828601613432565b9150509250929050565b600080600080600060808688031215613e0657613e056132e9565b5b6000613e14888289016133f9565b9550506020613e2588828901613432565b945050604086013567ffffffffffffffff811115613e4657613e456132ee565b5b613e5288828901613456565b9350935050606086013567ffffffffffffffff811115613e7557613e746132ee565b5b613e81888289016135bf565b9150509295509295909350565b60008060008060608587031215613ea857613ea76132e9565b5b6000613eb6878288016133f9565b9450506020613ec787828801613432565b935050604085013567ffffffffffffffff811115613ee857613ee76132ee565b5b613ef487828801613456565b925092505092959194509250565b600067ffffffffffffffff821115613f1d57613f1c6134c2565b5b613f26826134b1565b9050602081019050919050565b6000613f46613f4184613f02565b613522565b905082815260208101848484011115613f6257613f616134ac565b5b613f6d84828561356e565b509392505050565b600082601f830112613f8a57613f89613447565b5b8135613f9a848260208601613f33565b91505092915050565b60008060008060808587031215613fbd57613fbc6132e9565b5b600085013567ffffffffffffffff811115613fdb57613fda6132ee565b5b613fe78782880161396f565b945050602085013567ffffffffffffffff811115614008576140076132ee565b5b61401487828801613a32565b935050604085013567ffffffffffffffff811115614035576140346132ee565b5b61404187828801613b13565b925050606085013567ffffffffffffffff811115614062576140616132ee565b5b61406e87828801613f75565b91505092959194509250565b600080600060608486031215614093576140926132e9565b5b60006140a186828701613818565b93505060206140b2868287016133f9565b925050604084013567ffffffffffffffff8111156140d3576140d26132ee565b5b6140df868287016135bf565b9150509250925092565b600080600080600060a08688031215614105576141046132e9565b5b600061411388828901613818565b955050602061412488828901613818565b945050604086013567ffffffffffffffff811115614145576141446132ee565b5b61415188828901613a32565b935050606086013567ffffffffffffffff811115614172576141716132ee565b5b61417e88828901613a32565b925050608086013567ffffffffffffffff81111561419f5761419e6132ee565b5b6141ab888289016135bf565b9150509295509295909350565b60008083601f8401126141ce576141cd613447565b5b8235905067ffffffffffffffff8111156141eb576141ea61344c565b5b60208301915083600182028301111561420757614206613451565b5b9250929050565b60008060008060608587031215614228576142276132e9565b5b600061423687828801613818565b9450506020614247878288016133f9565b935050604085013567ffffffffffffffff811115614268576142676132ee565b5b614274878288016141b8565b925092505092959194509250565b60008060408385031215614299576142986132e9565b5b60006142a785828601613818565b92505060206142b8858286016133f9565b9150509250929050565b600080600080600060a086880312156142de576142dd6132e9565b5b60006142ec88828901613818565b95505060206142fd88828901613818565b945050604061430e888289016133f9565b935050606061431f888289016133f9565b925050608086013567ffffffffffffffff8111156143405761433f6132ee565b5b61434c888289016135bf565b9150509295509295909350565b6000819050919050565b600061437e614379614374846137cf565b614359565b6137cf565b9050919050565b600061439082614363565b9050919050565b60006143a282614385565b9050919050565b6143b281614397565b82525050565b60006020820190506143cd60008301846143a9565b92915050565b600081905092915050565b60006143ea83856143d3565b93506143f783858461356e565b82840190509392505050565b60006144108284866143de565b91508190509392505050565b6144258161340e565b82525050565b600060a0820190506144406000830188613bfc565b61444d60208301876133b8565b61445a604083018661441c565b6144676060830185613bfc565b6144746080830184613bfc565b9695505050505050565b7f476f7665726e6f723a206f6e6c79476f7665726e616e63650000000000000000600082015250565b60006144b4601883613739565b91506144bf8261447e565b602082019050919050565b600060208201905081810360008301526144e3816144a7565b9050919050565b7f4e487b7100000000000000000000000000000000000000000000000000000000600052602260045260246000fd5b6000600282049050600182168061453157607f821691505b602082108103614544576145436144ea565b5b50919050565b7f476f7665726e6f723a2070726f706f73616c206e6f742073756363657373667560008201527f6c00000000000000000000000000000000000000000000000000000000000000602082015250565b60006145a6602183613739565b91506145b18261454a565b604082019050919050565b600060208201905081810360008301526145d581614599565b9050919050565b60006060820190506145f16000830186613bfc565b6145fe60208301856133b8565b61460b604083018461441c565b949350505050565b7f476f7665726e6f723a20756e6b6e6f776e2070726f706f73616c206964000000600082015250565b6000614649601d83613739565b915061465482614613565b602082019050919050565b600060208201905081810360008301526146788161463c565b9050919050565b7f4e487b7100000000000000000000000000000000000000000000000000000000600052601160045260246000fd5b60006146b9826133ae565b91506146c4836133ae565b92508282039050818111156146dc576146db61467f565b5b92915050565b7f4e487b7100000000000000000000000000000000000000000000000000000000600052603260045260246000fd5b7f476f7665726e6f723a2070726f706f73657220766f7465732062656c6f77207060008201527f726f706f73616c207468726573686f6c64000000000000000000000000000000602082015250565b600061476d603183613739565b915061477882614711565b604082019050919050565b6000602082019050818103600083015261479c81614760565b9050919050565b7f476f7665726e6f723a20696e76616c69642070726f706f73616c206c656e677460008201527f6800000000000000000000000000000000000000000000000000000000000000602082015250565b60006147ff602183613739565b915061480a826147a3565b604082019050919050565b6000602082019050818103600083015261482e816147f2565b9050919050565b7f476f7665726e6f723a20656d7074792070726f706f73616c0000000000000000600082015250565b600061486b601883613739565b915061487682614835565b602082019050919050565b6000602082019050818103600083015261489a8161485e565b9050919050565b7f476f7665726e6f723a2070726f706f73616c20616c726561647920657869737460008201527f7300000000000000000000000000000000000000000000000000000000000000602082015250565b60006148fd602183613739565b9150614908826148a1565b604082019050919050565b6000602082019050818103600083015261492c816148f0565b9050919050565b600067ffffffffffffffff82169050919050565b600061495282614933565b915061495d83614933565b9250828201905067ffffffffffffffff81111561497d5761497c61467f565b5b92915050565b61498c816137ef565b82525050565b600081519050919050565b600082825260208201905092915050565b6000819050602082019050919050565b6149c7816137ef565b82525050565b60006149d983836149be565b60208301905092915050565b6000602082019050919050565b60006149fd82614992565b614a07818561499d565b9350614a12836149ae565b8060005b83811015614a43578151614a2a88826149cd565b9750614a35836149e5565b925050600181019050614a16565b5085935050505092915050565b600081519050919050565b600082825260208201905092915050565b6000819050602082019050919050565b614a85816133ae565b82525050565b6000614a978383614a7c565b60208301905092915050565b6000602082019050919050565b6000614abb82614a50565b614ac58185614a5b565b9350614ad083614a6c565b8060005b83811015614b01578151614ae88882614a8b565b9750614af383614aa3565b925050600181019050614ad4565b5085935050505092915050565b600081519050919050565b600082825260208201905092915050565b6000819050602082019050919050565b600082825260208201905092915050565b6000614b568261372e565b614b608185614b3a565b9350614b7081856020860161374a565b614b79816134b1565b840191505092915050565b6000614b908383614b4b565b905092915050565b6000602082019050919050565b6000614bb082614b0e565b614bba8185614b19565b935083602082028501614bcc85614b2a565b8060005b85811015614c085784840389528151614be98582614b84565b9450614bf483614b98565b925060208a01995050600181019050614bd0565b50829750879550505050505092915050565b600081519050919050565b600082825260208201905092915050565b6000819050602082019050919050565b600081519050919050565b600082825260208201905092915050565b6000614c6d82614c46565b614c778185614c51565b9350614c8781856020860161374a565b614c90816134b1565b840191505092915050565b6000614ca78383614c62565b905092915050565b6000602082019050919050565b6000614cc782614c1a565b614cd18185614c25565b935083602082028501614ce385614c36565b8060005b85811015614d1f5784840389528151614d008582614c9b565b9450614d0b83614caf565b925060208a01995050600181019050614ce7565b50829750879550505050505092915050565b6000614d4c614d47614d4284614933565b614359565b6133ae565b9050919050565b614d5c81614d31565b82525050565b600061012082019050614d78600083018c6133b8565b614d85602083018b614983565b8181036040830152614d97818a6149f2565b90508181036060830152614dab8189614ab0565b90508181036080830152614dbf8188614ba5565b905081810360a0830152614dd38187614cbc565b9050614de260c0830186614d53565b614def60e0830185614d53565b818103610100830152614e028184613774565b90509a9950505050505050505050565b60006080820190508181036000830152614e2c81876149f2565b90508181036020830152614e408186614ab0565b90508181036040830152614e548185614cbc565b9050614e636060830184613bfc565b95945050505050565b7f53616665436173743a2076616c756520646f65736e27742066697420696e203260008201527f3234206269747300000000000000000000000000000000000000000000000000602082015250565b6000614ec8602783613739565b9150614ed382614e6c565b604082019050919050565b60006020820190508181036000830152614ef781614ebb565b9050919050565b7f53616665436173743a2076616c756520646f65736e27742066697420696e203360008201527f3220626974730000000000000000000000000000000000000000000000000000602082015250565b6000614f5a602683613739565b9150614f6582614efe565b604082019050919050565b60006020820190508181036000830152614f8981614f4d565b9050919050565b7f476f7665726e6f723a20766f7465206e6f742063757272656e746c792061637460008201527f6976650000000000000000000000000000000000000000000000000000000000602082015250565b6000614fec602383613739565b9150614ff782614f90565b604082019050919050565b6000602082019050818103600083015261501b81614fdf565b9050919050565b600060808201905061503760008301876133b8565b615044602083018661441c565b61505160408301856133b8565b81810360608301526150638184613774565b905095945050505050565b600082825260208201905092915050565b600061508a82614c46565b615094818561506e565b93506150a481856020860161374a565b6150ad816134b1565b840191505092915050565b600060a0820190506150cd60008301886133b8565b6150da602083018761441c565b6150e760408301866133b8565b81810360608301526150f98185613774565b9050818103608083015261510d818461507f565b90509695505050505050565b7f476f7665726e6f72566f74657351756f72756d4672616374696f6e3a2071756f60008201527f72756d4e756d657261746f72206f7665722071756f72756d44656e6f6d696e6160208201527f746f720000000000000000000000000000000000000000000000000000000000604082015250565b600061519b604383613739565b91506151a682615119565b606082019050919050565b600060208201905081810360008301526151ca8161518e565b9050919050565b60006040820190506151e660008301856133b8565b6151f360208301846133b8565b9392505050565b6000615205826133ae565b91507fffffffffffffffffffffffffffffffffffffffffffffffffffffffffffffffff82036152375761523661467f565b5b600182019050919050565b600061524d82614c46565b61525781856143d3565b935061526781856020860161374a565b80840191505092915050565b600061527f8284615242565b915081905092915050565b6000615295826133ae565b91506152a0836133ae565b92508282019050808211156152b8576152b761467f565b5b92915050565b7f436865636b706f696e74733a20626c6f636b206e6f7420796574206d696e6564600082015250565b60006152f4602083613739565b91506152ff826152be565b602082019050919050565b60006020820190508181036000830152615323816152e7565b9050919050565b7f53616665436173743a2076616c756520646f65736e27742066697420696e203660008201527f3420626974730000000000000000000000000000000000000000000000000000602082015250565b6000615386602683613739565b91506153918261532a565b604082019050919050565b600060208201905081810360008301526153b581615379565b9050919050565b60006040820190506153d16000830185614983565b6153de60208301846133b8565b9392505050565b6000815190506153f4816133e2565b92915050565b6000602082840312156154105761540f6132e9565b5b600061541e848285016153e5565b91505092915050565b6000615432826133ae565b915061543d836133ae565b925082820261544b816133ae565b915082820484148315176154625761546161467f565b5b5092915050565b7f4e487b7100000000000000000000000000000000000000000000000000000000600052601260045260246000fd5b60006154a3826133ae565b91506154ae836133ae565b9250826154be576154bd615469565b5b828204905092915050565b7f436865636b706f696e743a20696e76616c6964206b6579000000000000000000600082015250565b60006154ff601783613739565b915061550a826154c9565b602082019050919050565b6000602082019050818103600083015261552e816154f2565b9050919050565b600081905092915050565b7f1901000000000000000000000000000000000000000000000000000000000000600082015250565b6000615576600283615535565b915061558182615540565b600282019050919050565b6000819050919050565b6155a76155a2826135ed565b61558c565b82525050565b60006155b882615569565b91506155c48285615596565b6020820191506155d48284615596565b6020820191508190509392505050565b60006080820190506155f96000830187613bfc565b615606602083018661441c565b6156136040830185613bfc565b6156206060830184613bfc565b95945050505050565b7f45434453413a20696e76616c6964207369676e61747572650000000000000000600082015250565b600061565f601883613739565b915061566a82615629565b602082019050919050565b6000602082019050818103600083015261568e81615652565b9050919050565b7f45434453413a20696e76616c6964207369676e6174757265206c656e67746800600082015250565b60006156cb601f83613739565b91506156d682615695565b602082019050919050565b600060208201905081810360008301526156fa816156be565b9050919050565b7f45434453413a20696e76616c6964207369676e6174757265202773272076616c60008201527f7565000000000000000000000000000000000000000000000000000000000000602082015250565b600061575d602283613739565b915061576882615701565b604082019050919050565b6000602082019050818103600083015261578c81615750565b9050919050565b7f476f7665726e6f72566f74696e6753696d706c653a20766f746520616c72656160008201527f6479206361737400000000000000000000000000000000000000000000000000602082015250565b60006157ef602783613739565b91506157fa82615793565b604082019050919050565b6000602082019050818103600083015261581e816157e2565b9050919050565b7f476f7665726e6f72566f74696e6753696d706c653a20696e76616c696420766160008201527f6c756520666f7220656e756d20566f7465547970650000000000000000000000602082015250565b6000615881603583613739565b915061588c82615825565b604082019050919050565b600060208201905081810360008301526158b081615874565b9050919050565b600060a0820190506158cc6000830188613bfc565b6158d96020830187613bfc565b6158e66040830186613bfc565b6158f360608301856133b8565b6159006080830184614983565b969550505050505056fe476f7665726e6f723a2072656c617920726576657274656420776974686f7574206d657373616765476f7665726e6f723a2063616c6c20726576657274656420776974686f7574206d657373616765a2646970667358221220871794f390ac4dbbdc2680e0ffa633865e9616af77dc7405c62f7616a0912f4464736f6c63430008120033",
  "linkReferences": {},
  "deployedLinkReferences": {}
}